{
  "_format": "hh-sol-artifact-1",
  "contractName": "VirtualStudyGroupApp",
  "sourceName": "contracts/VirtualStudyGroupApp.sol",
  "abi": [
    {
      "inputs": [],
      "stateMutability": "nonpayable",
      "type": "constructor"
    },
    {
      "inputs": [],
      "name": "InvalidNullifier",
      "type": "error"
    },
    {
      "anonymous": false,
      "inputs": [
        {
          "indexed": true,
          "internalType": "address",
          "name": "owner",
          "type": "address"
        },
        {
          "indexed": true,
          "internalType": "address",
          "name": "approved",
          "type": "address"
        },
        {
          "indexed": true,
          "internalType": "uint256",
          "name": "tokenId",
          "type": "uint256"
        }
      ],
      "name": "Approval",
      "type": "event"
    },
    {
      "anonymous": false,
      "inputs": [
        {
          "indexed": true,
          "internalType": "address",
          "name": "owner",
          "type": "address"
        },
        {
          "indexed": true,
          "internalType": "address",
          "name": "operator",
          "type": "address"
        },
        {
          "indexed": false,
          "internalType": "bool",
          "name": "approved",
          "type": "bool"
        }
      ],
      "name": "ApprovalForAll",
      "type": "event"
    },
    {
      "anonymous": false,
      "inputs": [
        {
          "indexed": false,
          "internalType": "uint256",
          "name": "id",
          "type": "uint256"
        },
        {
          "indexed": false,
          "internalType": "string",
          "name": "cid",
          "type": "string"
        },
        {
          "indexed": false,
          "internalType": "uint256",
          "name": "targetAmmount",
          "type": "uint256"
        },
        {
          "indexed": false,
          "internalType": "address",
          "name": "organizer",
          "type": "address"
        }
      ],
      "name": "GroupCreated",
      "type": "event"
    },
    {
      "anonymous": false,
      "inputs": [
        {
          "indexed": true,
          "internalType": "address",
          "name": "from",
          "type": "address"
        },
        {
          "indexed": true,
          "internalType": "address",
          "name": "to",
          "type": "address"
        },
        {
          "indexed": true,
          "internalType": "uint256",
          "name": "tokenId",
          "type": "uint256"
        }
      ],
      "name": "Transfer",
      "type": "event"
    },
    {
      "inputs": [],
      "name": "_totalGroups",
      "outputs": [
        {
          "internalType": "uint256",
          "name": "",
          "type": "uint256"
        }
      ],
      "stateMutability": "view",
      "type": "function"
    },
    {
      "inputs": [],
      "name": "_totalNFTs",
      "outputs": [
        {
          "internalType": "uint256",
          "name": "_value",
          "type": "uint256"
        }
      ],
      "stateMutability": "view",
      "type": "function"
    },
    {
      "inputs": [
        {
          "internalType": "address",
          "name": "to",
          "type": "address"
        },
        {
          "internalType": "uint256",
          "name": "tokenId",
          "type": "uint256"
        }
      ],
      "name": "approve",
      "outputs": [],
      "stateMutability": "nonpayable",
      "type": "function"
    },
    {
      "inputs": [
        {
          "internalType": "address",
          "name": "owner",
          "type": "address"
        }
      ],
      "name": "balanceOf",
      "outputs": [
        {
          "internalType": "uint256",
          "name": "",
          "type": "uint256"
        }
      ],
      "stateMutability": "view",
      "type": "function"
    },
    {
      "inputs": [
        {
          "internalType": "string",
          "name": "_cid",
          "type": "string"
        },
        {
          "internalType": "uint256",
          "name": "_targetAmmount",
          "type": "uint256"
        }
      ],
      "name": "createGroup",
      "outputs": [],
      "stateMutability": "nonpayable",
      "type": "function"
    },
    {
      "inputs": [
        {
          "internalType": "uint256",
          "name": "_donationId",
          "type": "uint256"
        },
        {
          "internalType": "uint256",
          "name": "_donationAmmount",
          "type": "uint256"
        }
      ],
      "name": "donate",
      "outputs": [],
      "stateMutability": "nonpayable",
      "type": "function"
    },
    {
      "inputs": [],
      "name": "getAllGroups",
      "outputs": [
        {
          "components": [
            {
              "internalType": "uint256",
              "name": "id",
              "type": "uint256"
            },
            {
              "internalType": "string",
              "name": "cid",
              "type": "string"
            },
            {
              "internalType": "uint256",
              "name": "targetAmmount",
              "type": "uint256"
            },
            {
              "internalType": "uint256",
              "name": "totalDonations",
              "type": "uint256"
            },
            {
              "internalType": "address",
              "name": "organizer",
              "type": "address"
            }
          ],
          "internalType": "struct VirtualStudyGroupApp.GroupBluePrint[]",
          "name": "",
          "type": "tuple[]"
        }
      ],
      "stateMutability": "view",
      "type": "function"
    },
    {
      "inputs": [
        {
          "internalType": "uint256",
          "name": "tokenId",
          "type": "uint256"
        }
      ],
      "name": "getApproved",
      "outputs": [
        {
          "internalType": "address",
          "name": "",
          "type": "address"
        }
      ],
      "stateMutability": "view",
      "type": "function"
    },
    {
      "inputs": [
        {
          "internalType": "uint256",
          "name": "",
          "type": "uint256"
        }
      ],
      "name": "groupsList",
      "outputs": [
        {
          "internalType": "uint256",
          "name": "id",
          "type": "uint256"
        },
        {
          "internalType": "string",
          "name": "cid",
          "type": "string"
        },
        {
          "internalType": "uint256",
          "name": "targetAmmount",
          "type": "uint256"
        },
        {
          "internalType": "uint256",
          "name": "totalDonations",
          "type": "uint256"
        },
        {
          "internalType": "address",
          "name": "organizer",
          "type": "address"
        }
      ],
      "stateMutability": "view",
      "type": "function"
    },
    {
      "inputs": [
        {
          "internalType": "address",
          "name": "owner",
          "type": "address"
        },
        {
          "internalType": "address",
          "name": "operator",
          "type": "address"
        }
      ],
      "name": "isApprovedForAll",
      "outputs": [
        {
          "internalType": "bool",
          "name": "",
          "type": "bool"
        }
      ],
      "stateMutability": "view",
      "type": "function"
    },
    {
      "inputs": [],
      "name": "name",
      "outputs": [
        {
          "internalType": "string",
          "name": "",
          "type": "string"
        }
      ],
      "stateMutability": "view",
      "type": "function"
    },
    {
      "inputs": [
        {
          "internalType": "uint256",
          "name": "tokenId",
          "type": "uint256"
        }
      ],
      "name": "ownerOf",
      "outputs": [
        {
          "internalType": "address",
          "name": "",
          "type": "address"
        }
      ],
      "stateMutability": "view",
      "type": "function"
    },
    {
      "inputs": [
        {
          "internalType": "address",
          "name": "from",
          "type": "address"
        },
        {
          "internalType": "address",
          "name": "to",
          "type": "address"
        },
        {
          "internalType": "uint256",
          "name": "tokenId",
          "type": "uint256"
        }
      ],
      "name": "safeTransferFrom",
      "outputs": [],
      "stateMutability": "nonpayable",
      "type": "function"
    },
    {
      "inputs": [
        {
          "internalType": "address",
          "name": "from",
          "type": "address"
        },
        {
          "internalType": "address",
          "name": "to",
          "type": "address"
        },
        {
          "internalType": "uint256",
          "name": "tokenId",
          "type": "uint256"
        },
        {
          "internalType": "bytes",
          "name": "data",
          "type": "bytes"
        }
      ],
      "name": "safeTransferFrom",
      "outputs": [],
      "stateMutability": "nonpayable",
      "type": "function"
    },
    {
      "inputs": [
        {
          "internalType": "address",
          "name": "operator",
          "type": "address"
        },
        {
          "internalType": "bool",
          "name": "approved",
          "type": "bool"
        }
      ],
      "name": "setApprovalForAll",
      "outputs": [],
      "stateMutability": "nonpayable",
      "type": "function"
    },
    {
      "inputs": [
        {
          "internalType": "bytes4",
          "name": "interfaceId",
          "type": "bytes4"
        }
      ],
      "name": "supportsInterface",
      "outputs": [
        {
          "internalType": "bool",
          "name": "",
          "type": "bool"
        }
      ],
      "stateMutability": "view",
      "type": "function"
    },
    {
      "inputs": [],
      "name": "symbol",
      "outputs": [
        {
          "internalType": "string",
          "name": "",
          "type": "string"
        }
      ],
      "stateMutability": "view",
      "type": "function"
    },
    {
      "inputs": [
        {
          "internalType": "uint256",
          "name": "tokenId",
          "type": "uint256"
        }
      ],
      "name": "tokenURI",
      "outputs": [
        {
          "internalType": "string",
          "name": "",
          "type": "string"
        }
      ],
      "stateMutability": "view",
      "type": "function"
    },
    {
      "inputs": [
        {
          "internalType": "address",
          "name": "from",
          "type": "address"
        },
        {
          "internalType": "address",
          "name": "to",
          "type": "address"
        },
        {
          "internalType": "uint256",
          "name": "tokenId",
          "type": "uint256"
        }
      ],
      "name": "transferFrom",
      "outputs": [],
      "stateMutability": "nonpayable",
      "type": "function"
    }
  ],
  "bytecode": "0x60a0604052600060085560016080908152503480156200001e57600080fd5b506040518060400160405280601481526020017f5669727475616c537475647947726f75704170700000000000000000000000008152506040518060400160405280600481526020017f56534741000000000000000000000000000000000000000000000000000000008152508160009080519060200190620000a3929190620000c5565b508060019080519060200190620000bc929190620000c5565b505050620001da565b828054620000d390620001a4565b90600052602060002090601f016020900481019282620000f7576000855562000143565b82601f106200011257805160ff191683800117855562000143565b8280016001018555821562000143579182015b828111156200014257825182559160200191906001019062000125565b5b50905062000152919062000156565b5090565b5b808211156200017157600081600090555060010162000157565b5090565b7f4e487b7100000000000000000000000000000000000000000000000000000000600052602260045260246000fd5b60006002820490506001821680620001bd57607f821691505b60208210811415620001d457620001d362000175565b5b50919050565b608051612ca0620001f360003960005050612ca06000f3fe608060405234801561001057600080fd5b50600436106101215760003560e01c80636f85053b116100ad578063b88d4fde11610071578063b88d4fde14610308578063c87b56dd14610324578063da0febd014610354578063e367fc6a14610388578063e985e9c5146103a457610121565b80636f85053b1461026257806370a082311461028057806395d89b41146102b0578063a22cb465146102ce578063ab09048c146102ea57610121565b80630cdd53f6116100f45780630cdd53f6146101c057806321cd3cae146101dc57806323b872dd146101fa57806342842e0e146102165780636352211e1461023257610121565b806301ffc9a71461012657806306fdde0314610156578063081812fc14610174578063095ea7b3146101a4575b600080fd5b610140600480360381019061013b9190611b40565b6103d4565b60405161014d9190611b88565b60405180910390f35b61015e6104b6565b60405161016b9190611c3c565b60405180910390f35b61018e60048036038101906101899190611c94565b610548565b60405161019b9190611d02565b60405180910390f35b6101be60048036038101906101b99190611d49565b61058e565b005b6101da60048036038101906101d59190611d89565b6106a6565b005b6101e46106dd565b6040516101f19190611f69565b60405180910390f35b610214600480360381019061020f9190611f8b565b6108a9565b005b610230600480360381019061022b9190611f8b565b610909565b005b61024c60048036038101906102479190611c94565b610929565b6040516102599190611d02565b60405180910390f35b61026a6109db565b6040516102779190611fed565b60405180910390f35b61029a60048036038101906102959190612008565b6109e1565b6040516102a79190611fed565b60405180910390f35b6102b8610a99565b6040516102c59190611c3c565b60405180910390f35b6102e860048036038101906102e39190612061565b610b2b565b005b6102f2610b41565b6040516102ff9190611fed565b60405180910390f35b610322600480360381019061031d91906121d6565b610b4d565b005b61033e60048036038101906103399190611c94565b610baf565b60405161034b9190611c3c565b60405180910390f35b61036e60048036038101906103699190611c94565b610cc2565b60405161037f959493929190612259565b60405180910390f35b6103a2600480360381019061039d9190612313565b610da0565b005b6103be60048036038101906103b99190612373565b610f1c565b6040516103cb9190611b88565b60405180910390f35b60007f80ac58cd000000000000000000000000000000000000000000000000000000007bffffffffffffffffffffffffffffffffffffffffffffffffffffffff1916827bffffffffffffffffffffffffffffffffffffffffffffffffffffffff1916148061049f57507f5b5e139f000000000000000000000000000000000000000000000000000000007bffffffffffffffffffffffffffffffffffffffffffffffffffffffff1916827bffffffffffffffffffffffffffffffffffffffffffffffffffffffff1916145b806104af57506104ae82610fb0565b5b9050919050565b6060600080546104c5906123e2565b80601f01602080910402602001604051908101604052809291908181526020018280546104f1906123e2565b801561053e5780601f106105135761010080835404028352916020019161053e565b820191906000526020600020905b81548152906001019060200180831161052157829003601f168201915b5050505050905090565b60006105538261101a565b6004600083815260200190815260200160002060009054906101000a900473ffffffffffffffffffffffffffffffffffffffff169050919050565b600061059982610929565b90508073ffffffffffffffffffffffffffffffffffffffff168373ffffffffffffffffffffffffffffffffffffffff16141561060a576040517f08c379a000000000000000000000000000000000000000000000000000000000815260040161060190612486565b60405180910390fd5b8073ffffffffffffffffffffffffffffffffffffffff16610629611065565b73ffffffffffffffffffffffffffffffffffffffff161480610658575061065781610652611065565b610f1c565b5b610697576040517f08c379a000000000000000000000000000000000000000000000000000000000815260040161068e90612518565b60405180910390fd5b6106a1838361106d565b505050565b6000600960008481526020019081526020016000209050818160030160008282546106d19190612567565b92505081905550505050565b6060600060085467ffffffffffffffff8111156106fd576106fc6120ab565b5b60405190808252806020026020018201604052801561073657816020015b6107236119ec565b81526020019060019003908161071b5790505b50905060005b6008548110156108a1576000600960008381526020019081526020016000209050806040518060a001604052908160008201548152602001600182018054610783906123e2565b80601f01602080910402602001604051908101604052809291908181526020018280546107af906123e2565b80156107fc5780601f106107d1576101008083540402835291602001916107fc565b820191906000526020600020905b8154815290600101906020018083116107df57829003601f168201915b5050505050815260200160028201548152602001600382015481526020016004820160009054906101000a900473ffffffffffffffffffffffffffffffffffffffff1673ffffffffffffffffffffffffffffffffffffffff1673ffffffffffffffffffffffffffffffffffffffff1681525050838381518110610882576108816125bd565b5b6020026020010181905250508080610899906125ec565b91505061073c565b508091505090565b6108ba6108b4611065565b82611126565b6108f9576040517f08c379a00000000000000000000000000000000000000000000000000000000081526004016108f0906126a7565b60405180910390fd5b6109048383836111bb565b505050565b61092483838360405180602001604052806000815250610b4d565b505050565b6000806002600084815260200190815260200160002060009054906101000a900473ffffffffffffffffffffffffffffffffffffffff169050600073ffffffffffffffffffffffffffffffffffffffff168173ffffffffffffffffffffffffffffffffffffffff1614156109d2576040517f08c379a00000000000000000000000000000000000000000000000000000000081526004016109c990612713565b60405180910390fd5b80915050919050565b60085481565b60008073ffffffffffffffffffffffffffffffffffffffff168273ffffffffffffffffffffffffffffffffffffffff161415610a52576040517f08c379a0000000000000000000000000000000000000000000000000000000008152600401610a49906127a5565b60405180910390fd5b600360008373ffffffffffffffffffffffffffffffffffffffff1673ffffffffffffffffffffffffffffffffffffffff168152602001908152602001600020549050919050565b606060018054610aa8906123e2565b80601f0160208091040260200160405190810160405280929190818152602001828054610ad4906123e2565b8015610b215780601f10610af657610100808354040283529160200191610b21565b820191906000526020600020905b815481529060010190602001808311610b0457829003601f168201915b5050505050905090565b610b3d610b36611065565b8383611422565b5050565b60078060000154905081565b610b5e610b58611065565b83611126565b610b9d576040517f08c379a0000000000000000000000000000000000000000000000000000000008152600401610b94906126a7565b60405180910390fd5b610ba98484848461158f565b50505050565b6060610bba8261101a565b6000600660008481526020019081526020016000208054610bda906123e2565b80601f0160208091040260200160405190810160405280929190818152602001828054610c06906123e2565b8015610c535780601f10610c2857610100808354040283529160200191610c53565b820191906000526020600020905b815481529060010190602001808311610c3657829003601f168201915b505050505090506000610c646115eb565b9050600081511415610c7a578192505050610cbd565b600082511115610caf578082604051602001610c97929190612801565b60405160208183030381529060405292505050610cbd565b610cb884611602565b925050505b919050565b6009602052806000526040600020600091509050806000015490806001018054610ceb906123e2565b80601f0160208091040260200160405190810160405280929190818152602001828054610d17906123e2565b8015610d645780601f10610d3957610100808354040283529160200191610d64565b820191906000526020600020905b815481529060010190602001808311610d4757829003601f168201915b5050505050908060020154908060030154908060040160009054906101000a900473ffffffffffffffffffffffffffffffffffffffff16905085565b6040518060a00160405280600854815260200184848080601f016020809104026020016040519081016040528093929190818152602001838380828437600081840152601f19601f820116905080830192505050505050508152602001828152602001600081526020013373ffffffffffffffffffffffffffffffffffffffff16815250600960006008548152602001908152602001600020600082015181600001556020820151816001019080519060200190610e5f929190611a31565b50604082015181600201556060820151816003015560808201518160040160006101000a81548173ffffffffffffffffffffffffffffffffffffffff021916908373ffffffffffffffffffffffffffffffffffffffff1602179055509050507f4b662a1faa1a19ddaa13c79132f9e6be0489da8515a957ad3decf1c7fec9a4c460085484848433604051610ef7959493929190612852565b60405180910390a160086000815480929190610f12906125ec565b9190505550505050565b6000600560008473ffffffffffffffffffffffffffffffffffffffff1673ffffffffffffffffffffffffffffffffffffffff16815260200190815260200160002060008373ffffffffffffffffffffffffffffffffffffffff1673ffffffffffffffffffffffffffffffffffffffff16815260200190815260200160002060009054906101000a900460ff16905092915050565b60007f01ffc9a7000000000000000000000000000000000000000000000000000000007bffffffffffffffffffffffffffffffffffffffffffffffffffffffff1916827bffffffffffffffffffffffffffffffffffffffffffffffffffffffff1916149050919050565b6110238161166a565b611062576040517f08c379a000000000000000000000000000000000000000000000000000000000815260040161105990612713565b60405180910390fd5b50565b600033905090565b816004600083815260200190815260200160002060006101000a81548173ffffffffffffffffffffffffffffffffffffffff021916908373ffffffffffffffffffffffffffffffffffffffff160217905550808273ffffffffffffffffffffffffffffffffffffffff166110e083610929565b73ffffffffffffffffffffffffffffffffffffffff167f8c5be1e5ebec7d5bd14f71427d1e84f3dd0314c0f7b2291e5b200ac8c7c3b92560405160405180910390a45050565b60008061113283610929565b90508073ffffffffffffffffffffffffffffffffffffffff168473ffffffffffffffffffffffffffffffffffffffff16148061117457506111738185610f1c565b5b806111b257508373ffffffffffffffffffffffffffffffffffffffff1661119a84610548565b73ffffffffffffffffffffffffffffffffffffffff16145b91505092915050565b8273ffffffffffffffffffffffffffffffffffffffff166111db82610929565b73ffffffffffffffffffffffffffffffffffffffff1614611231576040517f08c379a000000000000000000000000000000000000000000000000000000000815260040161122890612912565b60405180910390fd5b600073ffffffffffffffffffffffffffffffffffffffff168273ffffffffffffffffffffffffffffffffffffffff1614156112a1576040517f08c379a0000000000000000000000000000000000000000000000000000000008152600401611298906129a4565b60405180910390fd5b6112ac8383836116d6565b6112b760008261106d565b6001600360008573ffffffffffffffffffffffffffffffffffffffff1673ffffffffffffffffffffffffffffffffffffffff168152602001908152602001600020600082825461130791906129c4565b925050819055506001600360008473ffffffffffffffffffffffffffffffffffffffff1673ffffffffffffffffffffffffffffffffffffffff168152602001908152602001600020600082825461135e9190612567565b92505081905550816002600083815260200190815260200160002060006101000a81548173ffffffffffffffffffffffffffffffffffffffff021916908373ffffffffffffffffffffffffffffffffffffffff160217905550808273ffffffffffffffffffffffffffffffffffffffff168473ffffffffffffffffffffffffffffffffffffffff167fddf252ad1be2c89b69c2b068fc378daa952ba7f163c4a11628f55a4df523b3ef60405160405180910390a461141d8383836116db565b505050565b8173ffffffffffffffffffffffffffffffffffffffff168373ffffffffffffffffffffffffffffffffffffffff161415611491576040517f08c379a000000000000000000000000000000000000000000000000000000000815260040161148890612a44565b60405180910390fd5b80600560008573ffffffffffffffffffffffffffffffffffffffff1673ffffffffffffffffffffffffffffffffffffffff16815260200190815260200160002060008473ffffffffffffffffffffffffffffffffffffffff1673ffffffffffffffffffffffffffffffffffffffff16815260200190815260200160002060006101000a81548160ff0219169083151502179055508173ffffffffffffffffffffffffffffffffffffffff168373ffffffffffffffffffffffffffffffffffffffff167f17307eab39ab6107e8899845ad3d59bd9653f200f220920489ca2b5937696c31836040516115829190611b88565b60405180910390a3505050565b61159a8484846111bb565b6115a6848484846116e0565b6115e5576040517f08c379a00000000000000000000000000000000000000000000000000000000081526004016115dc90612ad6565b60405180910390fd5b50505050565b606060405180602001604052806000815250905090565b606061160d8261101a565b60006116176115eb565b905060008151116116375760405180602001604052806000815250611662565b8061164184611868565b604051602001611652929190612801565b6040516020818303038152906040525b915050919050565b60008073ffffffffffffffffffffffffffffffffffffffff166002600084815260200190815260200160002060009054906101000a900473ffffffffffffffffffffffffffffffffffffffff1673ffffffffffffffffffffffffffffffffffffffff1614159050919050565b505050565b505050565b60006117018473ffffffffffffffffffffffffffffffffffffffff166119c9565b1561185b578373ffffffffffffffffffffffffffffffffffffffff1663150b7a0261172a611065565b8786866040518563ffffffff1660e01b815260040161174c9493929190612b4b565b6020604051808303816000875af192505050801561178857506040513d601f19601f820116820180604052508101906117859190612bac565b60015b61180b573d80600081146117b8576040519150601f19603f3d011682016040523d82523d6000602084013e6117bd565b606091505b50600081511415611803576040517f08c379a00000000000000000000000000000000000000000000000000000000081526004016117fa90612ad6565b60405180910390fd5b805181602001fd5b63150b7a0260e01b7bffffffffffffffffffffffffffffffffffffffffffffffffffffffff1916817bffffffffffffffffffffffffffffffffffffffffffffffffffffffff191614915050611860565b600190505b949350505050565b606060008214156118b0576040518060400160405280600181526020017f300000000000000000000000000000000000000000000000000000000000000081525090506119c4565b600082905060005b600082146118e25780806118cb906125ec565b915050600a826118db9190612c08565b91506118b8565b60008167ffffffffffffffff8111156118fe576118fd6120ab565b5b6040519080825280601f01601f1916602001820160405280156119305781602001600182028036833780820191505090505b5090505b600085146119bd5760018261194991906129c4565b9150600a856119589190612c39565b60306119649190612567565b60f81b81838151811061197a576119796125bd565b5b60200101907effffffffffffffffffffffffffffffffffffffffffffffffffffffffffffff1916908160001a905350600a856119b69190612c08565b9450611934565b8093505050505b919050565b6000808273ffffffffffffffffffffffffffffffffffffffff163b119050919050565b6040518060a0016040528060008152602001606081526020016000815260200160008152602001600073ffffffffffffffffffffffffffffffffffffffff1681525090565b828054611a3d906123e2565b90600052602060002090601f016020900481019282611a5f5760008555611aa6565b82601f10611a7857805160ff1916838001178555611aa6565b82800160010185558215611aa6579182015b82811115611aa5578251825591602001919060010190611a8a565b5b509050611ab39190611ab7565b5090565b5b80821115611ad0576000816000905550600101611ab8565b5090565b6000604051905090565b600080fd5b600080fd5b60007fffffffff0000000000000000000000000000000000000000000000000000000082169050919050565b611b1d81611ae8565b8114611b2857600080fd5b50565b600081359050611b3a81611b14565b92915050565b600060208284031215611b5657611b55611ade565b5b6000611b6484828501611b2b565b91505092915050565b60008115159050919050565b611b8281611b6d565b82525050565b6000602082019050611b9d6000830184611b79565b92915050565b600081519050919050565b600082825260208201905092915050565b60005b83811015611bdd578082015181840152602081019050611bc2565b83811115611bec576000848401525b50505050565b6000601f19601f8301169050919050565b6000611c0e82611ba3565b611c188185611bae565b9350611c28818560208601611bbf565b611c3181611bf2565b840191505092915050565b60006020820190508181036000830152611c568184611c03565b905092915050565b6000819050919050565b611c7181611c5e565b8114611c7c57600080fd5b50565b600081359050611c8e81611c68565b92915050565b600060208284031215611caa57611ca9611ade565b5b6000611cb884828501611c7f565b91505092915050565b600073ffffffffffffffffffffffffffffffffffffffff82169050919050565b6000611cec82611cc1565b9050919050565b611cfc81611ce1565b82525050565b6000602082019050611d176000830184611cf3565b92915050565b611d2681611ce1565b8114611d3157600080fd5b50565b600081359050611d4381611d1d565b92915050565b60008060408385031215611d6057611d5f611ade565b5b6000611d6e85828601611d34565b9250506020611d7f85828601611c7f565b9150509250929050565b60008060408385031215611da057611d9f611ade565b5b6000611dae85828601611c7f565b9250506020611dbf85828601611c7f565b9150509250929050565b600081519050919050565b600082825260208201905092915050565b6000819050602082019050919050565b611dfe81611c5e565b82525050565b600082825260208201905092915050565b6000611e2082611ba3565b611e2a8185611e04565b9350611e3a818560208601611bbf565b611e4381611bf2565b840191505092915050565b611e5781611ce1565b82525050565b600060a083016000830151611e756000860182611df5565b5060208301518482036020860152611e8d8282611e15565b9150506040830151611ea26040860182611df5565b506060830151611eb56060860182611df5565b506080830151611ec86080860182611e4e565b508091505092915050565b6000611edf8383611e5d565b905092915050565b6000602082019050919050565b6000611eff82611dc9565b611f098185611dd4565b935083602082028501611f1b85611de5565b8060005b85811015611f575784840389528151611f388582611ed3565b9450611f4383611ee7565b925060208a01995050600181019050611f1f565b50829750879550505050505092915050565b60006020820190508181036000830152611f838184611ef4565b905092915050565b600080600060608486031215611fa457611fa3611ade565b5b6000611fb286828701611d34565b9350506020611fc386828701611d34565b9250506040611fd486828701611c7f565b9150509250925092565b611fe781611c5e565b82525050565b60006020820190506120026000830184611fde565b92915050565b60006020828403121561201e5761201d611ade565b5b600061202c84828501611d34565b91505092915050565b61203e81611b6d565b811461204957600080fd5b50565b60008135905061205b81612035565b92915050565b6000806040838503121561207857612077611ade565b5b600061208685828601611d34565b92505060206120978582860161204c565b9150509250929050565b600080fd5b600080fd5b7f4e487b7100000000000000000000000000000000000000000000000000000000600052604160045260246000fd5b6120e382611bf2565b810181811067ffffffffffffffff82111715612102576121016120ab565b5b80604052505050565b6000612115611ad4565b905061212182826120da565b919050565b600067ffffffffffffffff821115612141576121406120ab565b5b61214a82611bf2565b9050602081019050919050565b82818337600083830152505050565b600061217961217484612126565b61210b565b905082815260208101848484011115612195576121946120a6565b5b6121a0848285612157565b509392505050565b600082601f8301126121bd576121bc6120a1565b5b81356121cd848260208601612166565b91505092915050565b600080600080608085870312156121f0576121ef611ade565b5b60006121fe87828801611d34565b945050602061220f87828801611d34565b935050604061222087828801611c7f565b925050606085013567ffffffffffffffff81111561224157612240611ae3565b5b61224d878288016121a8565b91505092959194509250565b600060a08201905061226e6000830188611fde565b81810360208301526122808187611c03565b905061228f6040830186611fde565b61229c6060830185611fde565b6122a96080830184611cf3565b9695505050505050565b600080fd5b600080fd5b60008083601f8401126122d3576122d26120a1565b5b8235905067ffffffffffffffff8111156122f0576122ef6122b3565b5b60208301915083600182028301111561230c5761230b6122b8565b5b9250929050565b60008060006040848603121561232c5761232b611ade565b5b600084013567ffffffffffffffff81111561234a57612349611ae3565b5b612356868287016122bd565b9350935050602061236986828701611c7f565b9150509250925092565b6000806040838503121561238a57612389611ade565b5b600061239885828601611d34565b92505060206123a985828601611d34565b9150509250929050565b7f4e487b7100000000000000000000000000000000000000000000000000000000600052602260045260246000fd5b600060028204905060018216806123fa57607f821691505b6020821081141561240e5761240d6123b3565b5b50919050565b7f4552433732313a20617070726f76616c20746f2063757272656e74206f776e6560008201527f7200000000000000000000000000000000000000000000000000000000000000602082015250565b6000612470602183611bae565b915061247b82612414565b604082019050919050565b6000602082019050818103600083015261249f81612463565b9050919050565b7f4552433732313a20617070726f76652063616c6c6572206973206e6f7420746f60008201527f6b656e206f776e6572206e6f7220617070726f76656420666f7220616c6c0000602082015250565b6000612502603e83611bae565b915061250d826124a6565b604082019050919050565b60006020820190508181036000830152612531816124f5565b9050919050565b7f4e487b7100000000000000000000000000000000000000000000000000000000600052601160045260246000fd5b600061257282611c5e565b915061257d83611c5e565b9250827fffffffffffffffffffffffffffffffffffffffffffffffffffffffffffffffff038211156125b2576125b1612538565b5b828201905092915050565b7f4e487b7100000000000000000000000000000000000000000000000000000000600052603260045260246000fd5b60006125f782611c5e565b91507fffffffffffffffffffffffffffffffffffffffffffffffffffffffffffffffff82141561262a57612629612538565b5b600182019050919050565b7f4552433732313a2063616c6c6572206973206e6f7420746f6b656e206f776e6560008201527f72206e6f7220617070726f766564000000000000000000000000000000000000602082015250565b6000612691602e83611bae565b915061269c82612635565b604082019050919050565b600060208201905081810360008301526126c081612684565b9050919050565b7f4552433732313a20696e76616c696420746f6b656e2049440000000000000000600082015250565b60006126fd601883611bae565b9150612708826126c7565b602082019050919050565b6000602082019050818103600083015261272c816126f0565b9050919050565b7f4552433732313a2061646472657373207a65726f206973206e6f74206120766160008201527f6c6964206f776e65720000000000000000000000000000000000000000000000602082015250565b600061278f602983611bae565b915061279a82612733565b604082019050919050565b600060208201905081810360008301526127be81612782565b9050919050565b600081905092915050565b60006127db82611ba3565b6127e581856127c5565b93506127f5818560208601611bbf565b80840191505092915050565b600061280d82856127d0565b915061281982846127d0565b91508190509392505050565b60006128318385611bae565b935061283e838584612157565b61284783611bf2565b840190509392505050565b60006080820190506128676000830188611fde565b818103602083015261287a818688612825565b90506128896040830185611fde565b6128966060830184611cf3565b9695505050505050565b7f4552433732313a207472616e736665722066726f6d20696e636f72726563742060008201527f6f776e6572000000000000000000000000000000000000000000000000000000602082015250565b60006128fc602583611bae565b9150612907826128a0565b604082019050919050565b6000602082019050818103600083015261292b816128ef565b9050919050565b7f4552433732313a207472616e7366657220746f20746865207a65726f2061646460008201527f7265737300000000000000000000000000000000000000000000000000000000602082015250565b600061298e602483611bae565b915061299982612932565b604082019050919050565b600060208201905081810360008301526129bd81612981565b9050919050565b60006129cf82611c5e565b91506129da83611c5e565b9250828210156129ed576129ec612538565b5b828203905092915050565b7f4552433732313a20617070726f766520746f2063616c6c657200000000000000600082015250565b6000612a2e601983611bae565b9150612a39826129f8565b602082019050919050565b60006020820190508181036000830152612a5d81612a21565b9050919050565b7f4552433732313a207472616e7366657220746f206e6f6e20455243373231526560008201527f63656976657220696d706c656d656e7465720000000000000000000000000000602082015250565b6000612ac0603283611bae565b9150612acb82612a64565b604082019050919050565b60006020820190508181036000830152612aef81612ab3565b9050919050565b600081519050919050565b600082825260208201905092915050565b6000612b1d82612af6565b612b278185612b01565b9350612b37818560208601611bbf565b612b4081611bf2565b840191505092915050565b6000608082019050612b606000830187611cf3565b612b6d6020830186611cf3565b612b7a6040830185611fde565b8181036060830152612b8c8184612b12565b905095945050505050565b600081519050612ba681611b14565b92915050565b600060208284031215612bc257612bc1611ade565b5b6000612bd084828501612b97565b91505092915050565b7f4e487b7100000000000000000000000000000000000000000000000000000000600052601260045260246000fd5b6000612c1382611c5e565b9150612c1e83611c5e565b925082612c2e57612c2d612bd9565b5b828204905092915050565b6000612c4482611c5e565b9150612c4f83611c5e565b925082612c5f57612c5e612bd9565b5b82820690509291505056fea26469706673582212200c90d80bd0198acbcb8c44f726c655b1610bda9e1e7bc2ed39726ef96ec79b5264736f6c634300080a0033",
  "linkReferences": {},
  "deployedLinkReferences": {}
}